{
  "_format": "hh-sol-artifact-1",
  "contractName": "Flip",
  "sourceName": "contracts/Flip.sol",
  "abi": [
    {
      "inputs": [
        {
          "internalType": "contract IGatewayRegistry",
          "name": "_registry",
          "type": "address"
        }
      ],
      "stateMutability": "nonpayable",
      "type": "constructor"
    },
    {
      "anonymous": false,
      "inputs": [
        {
          "indexed": false,
          "internalType": "bool",
          "name": "result",
          "type": "bool"
        }
      ],
      "name": "Result",
      "type": "event"
    },
    {
      "inputs": [
        {
          "internalType": "uint256",
          "name": "_id",
          "type": "uint256"
        },
        {
          "internalType": "bytes",
          "name": "_msg",
          "type": "bytes"
        },
        {
          "internalType": "bytes",
          "name": "_btcAddress",
          "type": "bytes"
        },
        {
          "internalType": "uint256",
          "name": "_amount",
          "type": "uint256"
        },
        {
          "internalType": "bytes32",
          "name": "_nHash",
          "type": "bytes32"
        },
        {
          "internalType": "bytes",
          "name": "_sig",
          "type": "bytes"
        }
      ],
      "name": "acceptGameWithBtc",
      "outputs": [],
      "stateMutability": "nonpayable",
      "type": "function"
    },
    {
      "inputs": [
        {
          "internalType": "uint256",
          "name": "_id",
          "type": "uint256"
        }
      ],
      "name": "acceptGameWithEth",
      "outputs": [],
      "stateMutability": "payable",
      "type": "function"
    },
    {
      "inputs": [],
      "name": "getBtcBalance",
      "outputs": [
        {
          "internalType": "uint256",
          "name": "",
          "type": "uint256"
        }
      ],
      "stateMutability": "view",
      "type": "function"
    },
    {
      "inputs": [],
      "name": "getGames",
      "outputs": [
        {
          "components": [
            {
              "internalType": "address",
              "name": "initiator",
              "type": "address"
            },
            {
              "internalType": "bytes",
              "name": "initiatorBtcAddress",
              "type": "bytes"
            },
            {
              "internalType": "uint256",
              "name": "amount",
              "type": "uint256"
            },
            {
              "internalType": "bool",
              "name": "isEth",
              "type": "bool"
            }
          ],
          "internalType": "struct Flip.Game[]",
          "name": "",
          "type": "tuple[]"
        }
      ],
      "stateMutability": "view",
      "type": "function"
    },
    {
      "inputs": [
        {
          "internalType": "bytes",
          "name": "_msg",
          "type": "bytes"
        },
        {
          "internalType": "bytes",
          "name": "_btcAddress",
          "type": "bytes"
        },
        {
          "internalType": "uint256",
          "name": "_amount",
          "type": "uint256"
        },
        {
          "internalType": "bytes32",
          "name": "_nHash",
          "type": "bytes32"
        },
        {
          "internalType": "bytes",
          "name": "_sig",
          "type": "bytes"
        }
      ],
      "name": "openGameWithBtc",
      "outputs": [],
      "stateMutability": "nonpayable",
      "type": "function"
    },
    {
      "inputs": [],
      "name": "openGameWithEth",
      "outputs": [],
      "stateMutability": "payable",
      "type": "function"
    },
    {
      "inputs": [],
      "name": "registry",
      "outputs": [
        {
          "internalType": "contract IGatewayRegistry",
          "name": "",
          "type": "address"
        }
      ],
      "stateMutability": "view",
      "type": "function"
    }
  ],
  "bytecode": "0x60806040523480156200001157600080fd5b506040516200218338038062002183833981810160405281019062000037919062000095565b806000806101000a81548173ffffffffffffffffffffffffffffffffffffffff021916908373ffffffffffffffffffffffffffffffffffffffff1602179055505062000123565b6000815190506200008f8162000109565b92915050565b600060208284031215620000a857600080fd5b6000620000b8848285016200007e565b91505092915050565b6000620000ce82620000e9565b9050919050565b6000620000e282620000c1565b9050919050565b600073ffffffffffffffffffffffffffffffffffffffff82169050919050565b6200011481620000d5565b81146200012057600080fd5b50565b61205080620001336000396000f3fe6080604052600436106100705760003560e01c80635860909f1161004e5780635860909f146100c45780637b103999146100ef578063c04c59471461011a578063ca3d85721461014557610070565b806316b9352d146100755780632d1cd48e1461007f57806333d7f32b1461009b575b600080fd5b61007d61016e565b005b61009960048036038101906100949190611727565b610274565b005b3480156100a757600080fd5b506100c260048036038101906100bd9190611609565b61070a565b005b3480156100d057600080fd5b506100d96108e6565b6040516100e69190611c4b565b60405180910390f35b3480156100fb57600080fd5b50610104610a1d565b6040516101119190611bd0565b60405180910390f35b34801561012657600080fd5b5061012f610a41565b60405161013c9190611af5565b60405180910390f35b34801561015157600080fd5b5061016c60048036038101906101679190611779565b610bad565b005b600160405180608001604052803373ffffffffffffffffffffffffffffffffffffffff16815260200160405180602001604052806000815250815260200134815260200160011515815250908060018154018082558091505060019003906000526020600020906004020160009091909190915060008201518160000160006101000a81548173ffffffffffffffffffffffffffffffffffffffff021916908373ffffffffffffffffffffffffffffffffffffffff16021790555060208201518160010190805190602001906102459291906113e6565b506040820151816002015560608201518160030160006101000a81548160ff0219169083151502179055505050565b60001515600182815481106102b2577f4e487b7100000000000000000000000000000000000000000000000000000000600052603260045260246000fd5b906000526020600020906004020160030160009054906101000a900460ff1615151415610314576040517f08c379a000000000000000000000000000000000000000000000000000000000815260040161030b90611beb565b60405180910390fd5b6001818154811061034e577f4e487b7100000000000000000000000000000000000000000000000000000000600052603260045260246000fd5b90600052602060002090600402016002015434146103a1576040517f08c379a000000000000000000000000000000000000000000000000000000000815260040161039890611c0b565b60405180910390fd5b60006103ab611237565b9050600081156103bd5733905061042c565b600183815481106103f7577f4e487b7100000000000000000000000000000000000000000000000000000000600052603260045260246000fd5b906000526020600020906004020160000160009054906101000a900473ffffffffffffffffffffffffffffffffffffffff1690505b8073ffffffffffffffffffffffffffffffffffffffff166108fc600260018681548110610482577f4e487b7100000000000000000000000000000000000000000000000000000000600052603260045260246000fd5b90600052602060002090600402016002015461049e9190611cdd565b9081150290604051600060405180830381858888f193505050501580156104c9573d6000803e3d6000fd5b507f0b3bdb70bcb1393d4319be3261bd6ab95e2ea1665e718029d24cecca39e84ccc826040516104f99190611b17565b60405180910390a160018080805490506105139190611d37565b8154811061054a577f4e487b7100000000000000000000000000000000000000000000000000000000600052603260045260246000fd5b906000526020600020906004020160018481548110610592577f4e487b7100000000000000000000000000000000000000000000000000000000600052603260045260246000fd5b90600052602060002090600402016000820160009054906101000a900473ffffffffffffffffffffffffffffffffffffffff168160000160006101000a81548173ffffffffffffffffffffffffffffffffffffffff021916908373ffffffffffffffffffffffffffffffffffffffff160217905550600182018160010190805461061b90611e38565b61062692919061146c565b50600282015481600201556003820160009054906101000a900460ff168160030160006101000a81548160ff0219169083151502179055509050506001805480610699577f4e487b7100000000000000000000000000000000000000000000000000000000600052603160045260246000fd5b6001900381819060005260206000209060040201600080820160006101000a81549073ffffffffffffffffffffffffffffffffffffffff02191690556001820160006106e591906114f9565b60028201600090556003820160006101000a81549060ff021916905550509055505050565b60006107a089898080601f016020809104026020016040519081016040528093929190818152602001838380828437600081840152601f19601f82011690508083019250505050505050868686868080601f016020809104026020016040519081016040528093929190818152602001838380828437600081840152601f19601f82011690508083019250505050505050611278565b9050600160405180608001604052803373ffffffffffffffffffffffffffffffffffffffff16815260200189898080601f016020809104026020016040519081016040528093929190818152602001838380828437600081840152601f19601f82011690508083019250505050505050815260200183815260200160001515815250908060018154018082558091505060019003906000526020600020906004020160009091909190915060008201518160000160006101000a81548173ffffffffffffffffffffffffffffffffffffffff021916908373ffffffffffffffffffffffffffffffffffffffff16021790555060208201518160010190805190602001906108ae9291906113e6565b506040820151816002015560608201518160030160006101000a81548160ff0219169083151502179055505050505050505050505050565b60008060009054906101000a900473ffffffffffffffffffffffffffffffffffffffff1673ffffffffffffffffffffffffffffffffffffffff1663efa74f1f6040518163ffffffff1660e01b815260040161094090611c2b565b60206040518083038186803b15801561095857600080fd5b505afa15801561096c573d6000803e3d6000fd5b505050506040513d601f19601f8201168201806040525081019061099091906116d5565b73ffffffffffffffffffffffffffffffffffffffff166370a08231306040518263ffffffff1660e01b81526004016109c89190611ada565b60206040518083038186803b1580156109e057600080fd5b505afa1580156109f4573d6000803e3d6000fd5b505050506040513d601f19601f82011682018060405250810190610a189190611750565b905090565b60008054906101000a900473ffffffffffffffffffffffffffffffffffffffff1681565b60606001805480602002602001604051908101604052809291908181526020016000905b82821015610ba457838290600052602060002090600402016040518060800160405290816000820160009054906101000a900473ffffffffffffffffffffffffffffffffffffffff1673ffffffffffffffffffffffffffffffffffffffff1673ffffffffffffffffffffffffffffffffffffffff168152602001600182018054610aee90611e38565b80601f0160208091040260200160405190810160405280929190818152602001828054610b1a90611e38565b8015610b675780601f10610b3c57610100808354040283529160200191610b67565b820191906000526020600020905b815481529060010190602001808311610b4a57829003601f168201915b50505050508152602001600282015481526020016003820160009054906101000a900460ff16151515158152505081526020019060010190610a65565b50505050905090565b6001151560018a81548110610beb577f4e487b7100000000000000000000000000000000000000000000000000000000600052603260045260246000fd5b906000526020600020906004020160030160009054906101000a900460ff1615151415610c4d576040517f08c379a0000000000000000000000000000000000000000000000000000000008152600401610c4490611beb565b60405180910390fd5b6000610ce389898080601f016020809104026020016040519081016040528093929190818152602001838380828437600081840152601f19601f82011690508083019250505050505050868686868080601f016020809104026020016040519081016040528093929190818152602001838380828437600081840152601f19601f82011690508083019250505050505050611278565b905060018a81548110610d1f577f4e487b7100000000000000000000000000000000000000000000000000000000600052603260045260246000fd5b9060005260206000209060040201600201548114610d72576040517f08c379a0000000000000000000000000000000000000000000000000000000008152600401610d6990611c0b565b60405180910390fd5b6000610d7c611237565b905060608115610dd25788888080601f016020809104026020016040519081016040528093929190818152602001838380828437600081840152601f19601f820116905080830192505050505050509050610ea9565b60018c81548110610e0c577f4e487b7100000000000000000000000000000000000000000000000000000000600052603260045260246000fd5b90600052602060002090600402016001018054610e2890611e38565b80601f0160208091040260200160405190810160405280929190818152602001828054610e5490611e38565b8015610ea15780601f10610e7657610100808354040283529160200191610ea1565b820191906000526020600020905b815481529060010190602001808311610e8457829003601f168201915b505050505090505b60008060009054906101000a900473ffffffffffffffffffffffffffffffffffffffff1673ffffffffffffffffffffffffffffffffffffffff166364936b1e6040518163ffffffff1660e01b8152600401610f0390611c2b565b60206040518083038186803b158015610f1b57600080fd5b505afa158015610f2f573d6000803e3d6000fd5b505050506040513d601f19601f82011682018060405250810190610f5391906116fe565b73ffffffffffffffffffffffffffffffffffffffff166338463cff83600287610f7c9190611cdd565b6040518363ffffffff1660e01b8152600401610f99929190611ba0565b602060405180830381600087803b158015610fb357600080fd5b505af1158015610fc7573d6000803e3d6000fd5b505050506040513d601f19601f82011682018060405250810190610feb9190611750565b90507f0b3bdb70bcb1393d4319be3261bd6ab95e2ea1665e718029d24cecca39e84ccc8360405161101c9190611b17565b60405180910390a160018080805490506110369190611d37565b8154811061106d577f4e487b7100000000000000000000000000000000000000000000000000000000600052603260045260246000fd5b906000526020600020906004020160018e815481106110b5577f4e487b7100000000000000000000000000000000000000000000000000000000600052603260045260246000fd5b90600052602060002090600402016000820160009054906101000a900473ffffffffffffffffffffffffffffffffffffffff168160000160006101000a81548173ffffffffffffffffffffffffffffffffffffffff021916908373ffffffffffffffffffffffffffffffffffffffff160217905550600182018160010190805461113e90611e38565b61114992919061146c565b50600282015481600201556003820160009054906101000a900460ff168160030160006101000a81548160ff02191690831515021790555090505060018054806111bc577f4e487b7100000000000000000000000000000000000000000000000000000000600052603160045260246000fd5b6001900381819060005260206000209060040201600080820160006101000a81549073ffffffffffffffffffffffffffffffffffffffff021916905560018201600061120891906114f9565b60028201600090556003820160006101000a81549060ff02191690555050905550505050505050505050505050565b6000806002444260405160200161124f929190611aae565b6040516020818303038152906040528051906020012060001c6112729190611e74565b14905090565b6000808560405160200161128c9190611b7e565b60405160208183030381529060405280519060200120905060008054906101000a900473ffffffffffffffffffffffffffffffffffffffff1673ffffffffffffffffffffffffffffffffffffffff166364936b1e6040518163ffffffff1660e01b81526004016112fb90611c2b565b60206040518083038186803b15801561131357600080fd5b505afa158015611327573d6000803e3d6000fd5b505050506040513d601f19601f8201168201806040525081019061134b91906116fe565b73ffffffffffffffffffffffffffffffffffffffff1663159ab14d828787876040518563ffffffff1660e01b81526004016113899493929190611b32565b602060405180830381600087803b1580156113a357600080fd5b505af11580156113b7573d6000803e3d6000fd5b505050506040513d601f19601f820116820180604052508101906113db9190611750565b915050949350505050565b8280546113f290611e38565b90600052602060002090601f016020900481019282611414576000855561145b565b82601f1061142d57805160ff191683800117855561145b565b8280016001018555821561145b579182015b8281111561145a57825182559160200191906001019061143f565b5b5090506114689190611539565b5090565b82805461147890611e38565b90600052602060002090601f01602090048101928261149a57600085556114e8565b82601f106114ab57805485556114e8565b828001600101855582156114e857600052602060002091601f016020900482015b828111156114e75782548255916001019190600101906114cc565b5b5090506114f59190611539565b5090565b50805461150590611e38565b6000825580601f106115175750611536565b601f0160209004906000526020600020908101906115359190611539565b5b50565b5b8082111561155257600081600090555060010161153a565b5090565b60008135905061156581611fbe565b92915050565b60008083601f84011261157d57600080fd5b8235905067ffffffffffffffff81111561159657600080fd5b6020830191508360018202830111156115ae57600080fd5b9250929050565b6000815190506115c481611fd5565b92915050565b6000815190506115d981611fec565b92915050565b6000813590506115ee81612003565b92915050565b60008151905061160381612003565b92915050565b60008060008060008060008060a0898b03121561162557600080fd5b600089013567ffffffffffffffff81111561163f57600080fd5b61164b8b828c0161156b565b9850985050602089013567ffffffffffffffff81111561166a57600080fd5b6116768b828c0161156b565b965096505060406116898b828c016115df565b945050606061169a8b828c01611556565b935050608089013567ffffffffffffffff8111156116b757600080fd5b6116c38b828c0161156b565b92509250509295985092959890939650565b6000602082840312156116e757600080fd5b60006116f5848285016115b5565b91505092915050565b60006020828403121561171057600080fd5b600061171e848285016115ca565b91505092915050565b60006020828403121561173957600080fd5b6000611747848285016115df565b91505092915050565b60006020828403121561176257600080fd5b6000611770848285016115f4565b91505092915050565b600080600080600080600080600060c08a8c03121561179757600080fd5b60006117a58c828d016115df565b99505060208a013567ffffffffffffffff8111156117c257600080fd5b6117ce8c828d0161156b565b985098505060408a013567ffffffffffffffff8111156117ed57600080fd5b6117f98c828d0161156b565b9650965050606061180c8c828d016115df565b945050608061181d8c828d01611556565b93505060a08a013567ffffffffffffffff81111561183a57600080fd5b6118468c828d0161156b565b92509250509295985092959850929598565b60006118648383611a16565b905092915050565b61187581611d6b565b82525050565b61188481611d6b565b82525050565b600061189582611c76565b61189f8185611c99565b9350836020820285016118b185611c66565b8060005b858110156118ed57848403895281516118ce8582611858565b94506118d983611c8c565b925060208a019950506001810190506118b5565b50829750879550505050505092915050565b61190881611d7d565b82525050565b61191781611d7d565b82525050565b61192681611d89565b82525050565b600061193782611c81565b6119418185611caa565b9350611951818560208601611e05565b61195a81611f32565b840191505092915050565b600061197082611c81565b61197a8185611cbb565b935061198a818560208601611e05565b61199381611f32565b840191505092915050565b6119a781611de1565b82525050565b60006119ba600b83611ccc565b91506119c582611f43565b602082019050919050565b60006119dd600d83611ccc565b91506119e882611f6c565b602082019050919050565b6000611a00600383611ccc565b9150611a0b82611f95565b602082019050919050565b6000608083016000830151611a2e600086018261186c565b5060208301518482036020860152611a46828261192c565b9150506040830151611a5b6040860182611a79565b506060830151611a6e60608601826118ff565b508091505092915050565b611a8281611dd7565b82525050565b611a9181611dd7565b82525050565b611aa8611aa382611dd7565b611e6a565b82525050565b6000611aba8285611a97565b602082019150611aca8284611a97565b6020820191508190509392505050565b6000602082019050611aef600083018461187b565b92915050565b60006020820190508181036000830152611b0f818461188a565b905092915050565b6000602082019050611b2c600083018461190e565b92915050565b6000608082019050611b47600083018761191d565b611b546020830186611a88565b611b61604083018561191d565b8181036060830152611b738184611965565b905095945050505050565b60006020820190508181036000830152611b988184611965565b905092915050565b60006040820190508181036000830152611bba8185611965565b9050611bc96020830184611a88565b9392505050565b6000602082019050611be5600083018461199e565b92915050565b60006020820190508181036000830152611c04816119ad565b9050919050565b60006020820190508181036000830152611c24816119d0565b9050919050565b60006020820190508181036000830152611c44816119f3565b9050919050565b6000602082019050611c606000830184611a88565b92915050565b6000819050602082019050919050565b600081519050919050565b600081519050919050565b6000602082019050919050565b600082825260208201905092915050565b600082825260208201905092915050565b600082825260208201905092915050565b600082825260208201905092915050565b6000611ce882611dd7565b9150611cf383611dd7565b9250817fffffffffffffffffffffffffffffffffffffffffffffffffffffffffffffffff0483118215151615611d2c57611d2b611ea5565b5b828202905092915050565b6000611d4282611dd7565b9150611d4d83611dd7565b925082821015611d6057611d5f611ea5565b5b828203905092915050565b6000611d7682611db7565b9050919050565b60008115159050919050565b6000819050919050565b6000611d9e82611d6b565b9050919050565b6000611db082611d6b565b9050919050565b600073ffffffffffffffffffffffffffffffffffffffff82169050919050565b6000819050919050565b6000611dec82611df3565b9050919050565b6000611dfe82611db7565b9050919050565b60005b83811015611e23578082015181840152602081019050611e08565b83811115611e32576000848401525b50505050565b60006002820490506001821680611e5057607f821691505b60208210811415611e6457611e63611f03565b5b50919050565b6000819050919050565b6000611e7f82611dd7565b9150611e8a83611dd7565b925082611e9a57611e99611ed4565b5b828206905092915050565b7f4e487b7100000000000000000000000000000000000000000000000000000000600052601160045260246000fd5b7f4e487b7100000000000000000000000000000000000000000000000000000000600052601260045260246000fd5b7f4e487b7100000000000000000000000000000000000000000000000000000000600052602260045260246000fd5b6000601f19601f8301169050919050565b7f54797065204572726f7221000000000000000000000000000000000000000000600082015250565b7f416d6f756e74204572726f722100000000000000000000000000000000000000600082015250565b7f4254430000000000000000000000000000000000000000000000000000000000600082015250565b611fc781611d89565b8114611fd257600080fd5b50565b611fde81611d93565b8114611fe957600080fd5b50565b611ff581611da5565b811461200057600080fd5b50565b61200c81611dd7565b811461201757600080fd5b5056fea2646970667358221220c26a2b4d22556fbcb05db0d8461560f6deea95dd55eacedac7f9e90d2990747464736f6c63430008040033",
  "linkReferences": {},
  "deployedLinkReferences": {}
}