{
  "_format": "hh-sol-artifact-1",
  "contractName": "Flip",
  "sourceName": "contracts/Flip.sol",
  "abi": [
    {
      "inputs": [],
      "stateMutability": "nonpayable",
      "type": "constructor"
    },
    {
      "anonymous": false,
      "inputs": [
        {
          "indexed": false,
          "internalType": "bool",
          "name": "result",
          "type": "bool"
        }
      ],
      "name": "Result",
      "type": "event"
    },
    {
      "inputs": [
        {
          "internalType": "uint256",
          "name": "_id",
          "type": "uint256"
        }
      ],
      "name": "acceptGame",
      "outputs": [],
      "stateMutability": "payable",
      "type": "function"
    },
    {
      "inputs": [],
      "name": "getGames",
      "outputs": [
        {
          "components": [
            {
              "internalType": "address",
              "name": "initiator",
              "type": "address"
            },
            {
              "internalType": "uint256",
              "name": "amount",
              "type": "uint256"
            }
          ],
          "internalType": "struct Flip.Game[]",
          "name": "",
          "type": "tuple[]"
        }
      ],
      "stateMutability": "view",
      "type": "function"
    },
    {
      "inputs": [],
      "name": "openGame",
      "outputs": [],
      "stateMutability": "payable",
      "type": "function"
    }
  ],
  "bytecode": "0x608060405234801561001057600080fd5b506108a5806100206000396000f3fe6080604052600436106100345760003560e01c8063605bd5ff14610039578063c04c594714610055578063fa12d78214610080575b600080fd5b610053600480360381019061004e9190610535565b61008a565b005b34801561006157600080fd5b5061006a6103b6565b6040516100779190610673565b60405180910390f35b610088610475565b005b600080600244426040516020016100a2929190610647565b6040516020818303038152906040528051906020012060001c6100c591906107c9565b149050600081156100d857339050610147565b60008381548110610112577f4e487b7100000000000000000000000000000000000000000000000000000000600052603260045260246000fd5b906000526020600020906002020160000160009054906101000a900473ffffffffffffffffffffffffffffffffffffffff1690505b8073ffffffffffffffffffffffffffffffffffffffff166108fc60026000868154811061019d577f4e487b7100000000000000000000000000000000000000000000000000000000600052603260045260246000fd5b9060005260206000209060020201600101546101b991906106e9565b9081150290604051600060405180830381858888f193505050501580156101e4573d6000803e3d6000fd5b507f0b3bdb70bcb1393d4319be3261bd6ab95e2ea1665e718029d24cecca39e84ccc826040516102149190610695565b60405180910390a1600060016000805490506102309190610743565b81548110610267577f4e487b7100000000000000000000000000000000000000000000000000000000600052603260045260246000fd5b9060005260206000209060020201600084815481106102af577f4e487b7100000000000000000000000000000000000000000000000000000000600052603260045260246000fd5b90600052602060002090600202016000820160009054906101000a900473ffffffffffffffffffffffffffffffffffffffff168160000160006101000a81548173ffffffffffffffffffffffffffffffffffffffff021916908373ffffffffffffffffffffffffffffffffffffffff160217905550600182015481600101559050506000805480610369577f4e487b7100000000000000000000000000000000000000000000000000000000600052603160045260246000fd5b6001900381819060005260206000209060020201600080820160006101000a81549073ffffffffffffffffffffffffffffffffffffffff0219169055600182016000905550509055505050565b60606000805480602002602001604051908101604052809291908181526020016000905b8282101561046c57838290600052602060002090600202016040518060400160405290816000820160009054906101000a900473ffffffffffffffffffffffffffffffffffffffff1673ffffffffffffffffffffffffffffffffffffffff1673ffffffffffffffffffffffffffffffffffffffff168152602001600182015481525050815260200190600101906103da565b50505050905090565b600060405180604001604052803373ffffffffffffffffffffffffffffffffffffffff16815260200134815250908060018154018082558091505060019003906000526020600020906002020160009091909190915060008201518160000160006101000a81548173ffffffffffffffffffffffffffffffffffffffff021916908373ffffffffffffffffffffffffffffffffffffffff160217905550602082015181600101555050565b60008135905061052f81610858565b92915050565b60006020828403121561054757600080fd5b600061055584828501610520565b91505092915050565b600061056a83836105f2565b60408301905092915050565b61057f81610777565b82525050565b6000610590826106c0565b61059a81856106d8565b93506105a5836106b0565b8060005b838110156105d65781516105bd888261055e565b97506105c8836106cb565b9250506001810190506105a9565b5085935050505092915050565b6105ec81610789565b82525050565b6040820160008201516106086000850182610576565b50602082015161061b6020850182610621565b50505050565b61062a816107b5565b82525050565b61064161063c826107b5565b6107bf565b82525050565b60006106538285610630565b6020820191506106638284610630565b6020820191508190509392505050565b6000602082019050818103600083015261068d8184610585565b905092915050565b60006020820190506106aa60008301846105e3565b92915050565b6000819050602082019050919050565b600081519050919050565b6000602082019050919050565b600082825260208201905092915050565b60006106f4826107b5565b91506106ff836107b5565b9250817fffffffffffffffffffffffffffffffffffffffffffffffffffffffffffffffff0483118215151615610738576107376107fa565b5b828202905092915050565b600061074e826107b5565b9150610759836107b5565b92508282101561076c5761076b6107fa565b5b828203905092915050565b600061078282610795565b9050919050565b60008115159050919050565b600073ffffffffffffffffffffffffffffffffffffffff82169050919050565b6000819050919050565b6000819050919050565b60006107d4826107b5565b91506107df836107b5565b9250826107ef576107ee610829565b5b828206905092915050565b7f4e487b7100000000000000000000000000000000000000000000000000000000600052601160045260246000fd5b7f4e487b7100000000000000000000000000000000000000000000000000000000600052601260045260246000fd5b610861816107b5565b811461086c57600080fd5b5056fea2646970667358221220f2873bc82d28f39307559e2cfd7ddafc2fbd993ca3bf481aa0ce026b737a056e64736f6c63430008040033",
  "linkReferences": {},
  "deployedLinkReferences": {}
}