{
  "_format": "hh-sol-artifact-1",
  "contractName": "Flip",
  "sourceName": "contracts/Flip.sol",
  "abi": [
    {
      "inputs": [],
      "stateMutability": "nonpayable",
      "type": "constructor"
    },
    {
      "anonymous": false,
      "inputs": [
        {
          "indexed": false,
          "internalType": "bool",
          "name": "res",
          "type": "bool"
        }
      ],
      "name": "Result",
      "type": "event"
    },
    {
      "inputs": [
        {
          "internalType": "uint256",
          "name": "_id",
          "type": "uint256"
        }
      ],
      "name": "acceptGame",
      "outputs": [],
      "stateMutability": "nonpayable",
      "type": "function"
    },
    {
      "inputs": [
        {
          "internalType": "uint256",
          "name": "_id",
          "type": "uint256"
        }
      ],
      "name": "getGame",
      "outputs": [
        {
          "components": [
            {
              "internalType": "address",
              "name": "initiator",
              "type": "address"
            },
            {
              "internalType": "uint256",
              "name": "amount",
              "type": "uint256"
            }
          ],
          "internalType": "struct Flip.Game",
          "name": "",
          "type": "tuple"
        }
      ],
      "stateMutability": "view",
      "type": "function"
    },
    {
      "inputs": [],
      "name": "getGames",
      "outputs": [
        {
          "components": [
            {
              "internalType": "address",
              "name": "initiator",
              "type": "address"
            },
            {
              "internalType": "uint256",
              "name": "amount",
              "type": "uint256"
            }
          ],
          "internalType": "struct Flip.Game[]",
          "name": "",
          "type": "tuple[]"
        }
      ],
      "stateMutability": "view",
      "type": "function"
    },
    {
      "inputs": [
        {
          "internalType": "uint256",
          "name": "_amount",
          "type": "uint256"
        }
      ],
      "name": "openGame",
      "outputs": [],
      "stateMutability": "nonpayable",
      "type": "function"
    }
  ],
  "bytecode": "0x608060405234801561001057600080fd5b50610884806100206000396000f3fe608060405234801561001057600080fd5b506004361061004b5760003560e01c8062f5544f14610050578063605bd5ff1461006c578063a2f77bcc14610088578063c04c5947146100b8575b600080fd5b61006a60048036038101906100659190610571565b6100d6565b005b61008660048036038101906100819190610571565b610182565b005b6100a2600480360381019061009d9190610571565b6103ab565b6040516100af91906106d8565b60405180910390f35b6100c061046d565b6040516100cd919061069b565b60405180910390f35b600060405180604001604052803373ffffffffffffffffffffffffffffffffffffffff16815260200183815250908060018154018082558091505060019003906000526020600020906002020160009091909190915060008201518160000160006101000a81548173ffffffffffffffffffffffffffffffffffffffff021916908373ffffffffffffffffffffffffffffffffffffffff16021790555060208201518160010155505050565b600060024261019191906107a8565b905060008114156101d9577f0b3bdb70bcb1393d4319be3261bd6ab95e2ea1665e718029d24cecca39e84ccc60016040516101cc91906106bd565b60405180910390a1610212565b7f0b3bdb70bcb1393d4319be3261bd6ab95e2ea1665e718029d24cecca39e84ccc600060405161020991906106bd565b60405180910390a15b60006001600080549050610226919061072c565b8154811061025d577f4e487b7100000000000000000000000000000000000000000000000000000000600052603260045260246000fd5b9060005260206000209060020201600083815481106102a5577f4e487b7100000000000000000000000000000000000000000000000000000000600052603260045260246000fd5b90600052602060002090600202016000820160009054906101000a900473ffffffffffffffffffffffffffffffffffffffff168160000160006101000a81548173ffffffffffffffffffffffffffffffffffffffff021916908373ffffffffffffffffffffffffffffffffffffffff16021790555060018201548160010155905050600080548061035f577f4e487b7100000000000000000000000000000000000000000000000000000000600052603160045260246000fd5b6001900381819060005260206000209060020201600080820160006101000a81549073ffffffffffffffffffffffffffffffffffffffff02191690556001820160009055505090555050565b6103b361052c565b600082815481106103ed577f4e487b7100000000000000000000000000000000000000000000000000000000600052603260045260246000fd5b90600052602060002090600202016040518060400160405290816000820160009054906101000a900473ffffffffffffffffffffffffffffffffffffffff1673ffffffffffffffffffffffffffffffffffffffff1673ffffffffffffffffffffffffffffffffffffffff1681526020016001820154815250509050919050565b60606000805480602002602001604051908101604052809291908181526020016000905b8282101561052357838290600052602060002090600202016040518060400160405290816000820160009054906101000a900473ffffffffffffffffffffffffffffffffffffffff1673ffffffffffffffffffffffffffffffffffffffff1673ffffffffffffffffffffffffffffffffffffffff16815260200160018201548152505081526020019060010190610491565b50505050905090565b6040518060400160405280600073ffffffffffffffffffffffffffffffffffffffff168152602001600081525090565b60008135905061056b81610837565b92915050565b60006020828403121561058357600080fd5b60006105918482850161055c565b91505092915050565b60006105a6838361062e565b60408301905092915050565b6105bb81610760565b82525050565b60006105cc82610703565b6105d6818561071b565b93506105e1836106f3565b8060005b838110156106125781516105f9888261059a565b97506106048361070e565b9250506001810190506105e5565b5085935050505092915050565b61062881610772565b82525050565b60408201600082015161064460008501826105b2565b506020820151610657602085018261068c565b50505050565b60408201600082015161067360008501826105b2565b506020820151610686602085018261068c565b50505050565b6106958161079e565b82525050565b600060208201905081810360008301526106b581846105c1565b905092915050565b60006020820190506106d2600083018461061f565b92915050565b60006040820190506106ed600083018461065d565b92915050565b6000819050602082019050919050565b600081519050919050565b6000602082019050919050565b600082825260208201905092915050565b60006107378261079e565b91506107428361079e565b925082821015610755576107546107d9565b5b828203905092915050565b600061076b8261077e565b9050919050565b60008115159050919050565b600073ffffffffffffffffffffffffffffffffffffffff82169050919050565b6000819050919050565b60006107b38261079e565b91506107be8361079e565b9250826107ce576107cd610808565b5b828206905092915050565b7f4e487b7100000000000000000000000000000000000000000000000000000000600052601160045260246000fd5b7f4e487b7100000000000000000000000000000000000000000000000000000000600052601260045260246000fd5b6108408161079e565b811461084b57600080fd5b5056fea2646970667358221220db0ef10e893eef71e0fdad84e2b9f27e1fd908477d2735f22057ed0131326ab764736f6c63430008040033",
  "linkReferences": {},
  "deployedLinkReferences": {}
}