{
  "_format": "hh-sol-artifact-1",
  "contractName": "Flip",
  "sourceName": "contracts/Flip.sol",
  "abi": [
    {
      "inputs": [
        {
          "internalType": "contract IGatewayRegistry",
          "name": "_registry",
          "type": "address"
        }
      ],
      "stateMutability": "nonpayable",
      "type": "constructor"
    },
    {
      "anonymous": false,
      "inputs": [
        {
          "indexed": false,
          "internalType": "uint256",
          "name": "_amount",
          "type": "uint256"
        },
        {
          "indexed": false,
          "internalType": "bytes",
          "name": "_msg",
          "type": "bytes"
        }
      ],
      "name": "Deposit",
      "type": "event"
    },
    {
      "anonymous": false,
      "inputs": [
        {
          "indexed": false,
          "internalType": "bool",
          "name": "result",
          "type": "bool"
        }
      ],
      "name": "Result",
      "type": "event"
    },
    {
      "anonymous": false,
      "inputs": [
        {
          "indexed": false,
          "internalType": "uint256",
          "name": "burnedAmount",
          "type": "uint256"
        }
      ],
      "name": "Withdrawal",
      "type": "event"
    },
    {
      "inputs": [
        {
          "internalType": "uint256",
          "name": "_id",
          "type": "uint256"
        }
      ],
      "name": "acceptGame",
      "outputs": [],
      "stateMutability": "payable",
      "type": "function"
    },
    {
      "inputs": [
        {
          "internalType": "string",
          "name": "s1",
          "type": "string"
        },
        {
          "internalType": "string",
          "name": "s2",
          "type": "string"
        }
      ],
      "name": "compareStringsbyBytes",
      "outputs": [
        {
          "internalType": "bool",
          "name": "",
          "type": "bool"
        }
      ],
      "stateMutability": "pure",
      "type": "function"
    },
    {
      "inputs": [],
      "name": "getBalance",
      "outputs": [
        {
          "components": [
            {
              "internalType": "uint256",
              "name": "btc",
              "type": "uint256"
            },
            {
              "internalType": "uint256",
              "name": "luna",
              "type": "uint256"
            }
          ],
          "internalType": "struct Flip.Balance",
          "name": "",
          "type": "tuple"
        }
      ],
      "stateMutability": "view",
      "type": "function"
    },
    {
      "inputs": [],
      "name": "getGames",
      "outputs": [
        {
          "components": [
            {
              "internalType": "address",
              "name": "initiator",
              "type": "address"
            },
            {
              "internalType": "uint256",
              "name": "amount",
              "type": "uint256"
            },
            {
              "internalType": "string",
              "name": "symbol",
              "type": "string"
            }
          ],
          "internalType": "struct Flip.Game[]",
          "name": "",
          "type": "tuple[]"
        }
      ],
      "stateMutability": "view",
      "type": "function"
    },
    {
      "inputs": [],
      "name": "getTotalBalance",
      "outputs": [
        {
          "components": [
            {
              "internalType": "uint256",
              "name": "btc",
              "type": "uint256"
            },
            {
              "internalType": "uint256",
              "name": "luna",
              "type": "uint256"
            }
          ],
          "internalType": "struct Flip.Balance",
          "name": "",
          "type": "tuple"
        }
      ],
      "stateMutability": "view",
      "type": "function"
    },
    {
      "inputs": [
        {
          "internalType": "string",
          "name": "_symbol",
          "type": "string"
        },
        {
          "internalType": "uint256",
          "name": "_amount",
          "type": "uint256"
        }
      ],
      "name": "openGame",
      "outputs": [],
      "stateMutability": "payable",
      "type": "function"
    },
    {
      "inputs": [],
      "name": "registry",
      "outputs": [
        {
          "internalType": "contract IGatewayRegistry",
          "name": "",
          "type": "address"
        }
      ],
      "stateMutability": "view",
      "type": "function"
    },
    {
      "inputs": [
        {
          "internalType": "string",
          "name": "_symbol",
          "type": "string"
        },
        {
          "internalType": "bytes",
          "name": "_to",
          "type": "bytes"
        },
        {
          "internalType": "uint256",
          "name": "_amount",
          "type": "uint256"
        }
      ],
      "name": "withdraw",
      "outputs": [],
      "stateMutability": "nonpayable",
      "type": "function"
    }
  ],
  "bytecode": "0x60806040523480156200001157600080fd5b506040516200317a3803806200317a833981810160405281019062000037919062000095565b806000806101000a81548173ffffffffffffffffffffffffffffffffffffffff021916908373ffffffffffffffffffffffffffffffffffffffff1602179055505062000123565b6000815190506200008f8162000109565b92915050565b600060208284031215620000a857600080fd5b6000620000b8848285016200007e565b91505092915050565b6000620000ce82620000e9565b9050919050565b6000620000e282620000c1565b9050919050565b600073ffffffffffffffffffffffffffffffffffffffff82169050919050565b6200011481620000d5565b81146200012057600080fd5b50565b61304780620001336000396000f3fe60806040526004361061007b5760003560e01c8063b7b8ee741161004e578063b7b8ee741461011d578063c04c594714610146578063cc7c8c2b14610171578063e9a734ff1461018d5761007b565b806312065fe01461008057806312b58349146100ab578063605bd5ff146100d65780637b103999146100f2575b600080fd5b34801561008c57600080fd5b506100956101ca565b6040516100a29190612b4b565b60405180910390f35b3480156100b757600080fd5b506100c0610235565b6040516100cd9190612b4b565b60405180910390f35b6100f060048036038101906100eb9190612711565b610263565b005b3480156100fe57600080fd5b50610107611704565b6040516101149190612aac565b60405180910390f35b34801561012957600080fd5b50610144600480360381019061013f91906125c4565b611728565b005b34801561015257600080fd5b5061015b611bab565b6040516101689190612a3d565b60405180910390f35b61018b6004803603810190610186919061264d565b611cfc565b005b34801561019957600080fd5b506101b460048036038101906101af91906126a5565b61227d565b6040516101c19190612a5f565b60405180910390f35b6101d26122d6565b600460003373ffffffffffffffffffffffffffffffffffffffff1673ffffffffffffffffffffffffffffffffffffffff16815260200190815260200160002060405180604001604052908160008201548152602001600182015481525050905090565b61023d6122d6565b600260405180604001604052908160008201548152602001600182015481525050905090565b6000806002444260405160200161027b929190612a11565b6040516020818303038152906040528051906020012060001c61029e9190612e6a565b1490506103b3600183815481106102de577f4e487b7100000000000000000000000000000000000000000000000000000000600052603260045260246000fd5b906000526020600020906003020160020180546102fa90612dfd565b80601f016020809104026020016040519081016040528092919081815260200182805461032690612dfd565b80156103735780601f1061034857610100808354040283529160200191610373565b820191906000526020600020905b81548152906001019060200180831161035657829003601f168201915b50505050506040518060400160405280600381526020017f455448000000000000000000000000000000000000000000000000000000000081525061227d565b156105fd57600182815481106103f2577f4e487b7100000000000000000000000000000000000000000000000000000000600052603260045260246000fd5b9060005260206000209060030201600101543414610445576040517f08c379a000000000000000000000000000000000000000000000000000000000815260040161043c90612b0b565b60405180910390fd5b80156104ee573373ffffffffffffffffffffffffffffffffffffffff166108fc6002600185815481106104a1577f4e487b7100000000000000000000000000000000000000000000000000000000600052603260045260246000fd5b9060005260206000209060030201600101546104bd9190612caf565b9081150290604051600060405180830381858888f193505050501580156104e8573d6000803e3d6000fd5b506105f8565b60018281548110610528577f4e487b7100000000000000000000000000000000000000000000000000000000600052603260045260246000fd5b906000526020600020906003020160000160009054906101000a900473ffffffffffffffffffffffffffffffffffffffff1673ffffffffffffffffffffffffffffffffffffffff166108fc6002600185815481106105af577f4e487b7100000000000000000000000000000000000000000000000000000000600052603260045260246000fd5b9060005260206000209060030201600101546105cb9190612caf565b9081150290604051600060405180830381858888f193505050501580156105f6573d6000803e3d6000fd5b505b611506565b61070f6001838154811061063a577f4e487b7100000000000000000000000000000000000000000000000000000000600052603260045260246000fd5b9060005260206000209060030201600201805461065690612dfd565b80601f016020809104026020016040519081016040528092919081815260200182805461068290612dfd565b80156106cf5780601f106106a4576101008083540402835291602001916106cf565b820191906000526020600020905b8154815290600101906020018083116106b257829003601f168201915b50505050506040518060400160405280600381526020017f425443000000000000000000000000000000000000000000000000000000000081525061227d565b156107e557600460003373ffffffffffffffffffffffffffffffffffffffff1673ffffffffffffffffffffffffffffffffffffffff1681526020019081526020016000206000015460018381548110610791577f4e487b7100000000000000000000000000000000000000000000000000000000600052603260045260246000fd5b90600052602060002090600302016001015411156107e4576040517f08c379a00000000000000000000000000000000000000000000000000000000081526004016107db90612b2b565b60405180910390fd5b5b6108f760018381548110610822577f4e487b7100000000000000000000000000000000000000000000000000000000600052603260045260246000fd5b9060005260206000209060030201600201805461083e90612dfd565b80601f016020809104026020016040519081016040528092919081815260200182805461086a90612dfd565b80156108b75780601f1061088c576101008083540402835291602001916108b7565b820191906000526020600020905b81548152906001019060200180831161089a57829003601f168201915b50505050506040518060400160405280600481526020017f4c554e410000000000000000000000000000000000000000000000000000000081525061227d565b156109cd57600460003373ffffffffffffffffffffffffffffffffffffffff1673ffffffffffffffffffffffffffffffffffffffff1681526020019081526020016000206001015460018381548110610979577f4e487b7100000000000000000000000000000000000000000000000000000000600052603260045260246000fd5b90600052602060002090600302016001015411156109cc576040517f08c379a00000000000000000000000000000000000000000000000000000000081526004016109c390612b2b565b60405180910390fd5b5b8015610f6e57610ae560018381548110610a10577f4e487b7100000000000000000000000000000000000000000000000000000000600052603260045260246000fd5b90600052602060002090600302016002018054610a2c90612dfd565b80601f0160208091040260200160405190810160405280929190818152602001828054610a5890612dfd565b8015610aa55780601f10610a7a57610100808354040283529160200191610aa5565b820191906000526020600020905b815481529060010190602001808311610a8857829003601f168201915b50505050506040518060400160405280600381526020017f425443000000000000000000000000000000000000000000000000000000000081525061227d565b15610c9e5760018281548110610b24577f4e487b7100000000000000000000000000000000000000000000000000000000600052603260045260246000fd5b906000526020600020906003020160010154600460003373ffffffffffffffffffffffffffffffffffffffff1673ffffffffffffffffffffffffffffffffffffffff1681526020019081526020016000206000016000828254610b879190612c59565b9250508190555060018281548110610bc8577f4e487b7100000000000000000000000000000000000000000000000000000000600052603260045260246000fd5b9060005260206000209060030201600101546004600060018581548110610c18577f4e487b7100000000000000000000000000000000000000000000000000000000600052603260045260246000fd5b906000526020600020906003020160000160009054906101000a900473ffffffffffffffffffffffffffffffffffffffff1673ffffffffffffffffffffffffffffffffffffffff1673ffffffffffffffffffffffffffffffffffffffff1681526020019081526020016000206000016000828254610c969190612d09565b925050819055505b610db060018381548110610cdb577f4e487b7100000000000000000000000000000000000000000000000000000000600052603260045260246000fd5b90600052602060002090600302016002018054610cf790612dfd565b80601f0160208091040260200160405190810160405280929190818152602001828054610d2390612dfd565b8015610d705780601f10610d4557610100808354040283529160200191610d70565b820191906000526020600020905b815481529060010190602001808311610d5357829003601f168201915b50505050506040518060400160405280600481526020017f4c554e410000000000000000000000000000000000000000000000000000000081525061227d565b15610f695760018281548110610def577f4e487b7100000000000000000000000000000000000000000000000000000000600052603260045260246000fd5b906000526020600020906003020160010154600460003373ffffffffffffffffffffffffffffffffffffffff1673ffffffffffffffffffffffffffffffffffffffff1681526020019081526020016000206001016000828254610e529190612c59565b9250508190555060018281548110610e93577f4e487b7100000000000000000000000000000000000000000000000000000000600052603260045260246000fd5b9060005260206000209060030201600101546004600060018581548110610ee3577f4e487b7100000000000000000000000000000000000000000000000000000000600052603260045260246000fd5b906000526020600020906003020160000160009054906101000a900473ffffffffffffffffffffffffffffffffffffffff1673ffffffffffffffffffffffffffffffffffffffff1673ffffffffffffffffffffffffffffffffffffffff1681526020019081526020016000206001016000828254610f619190612d09565b925050819055505b611505565b61108060018381548110610fab577f4e487b7100000000000000000000000000000000000000000000000000000000600052603260045260246000fd5b90600052602060002090600302016002018054610fc790612dfd565b80601f0160208091040260200160405190810160405280929190818152602001828054610ff390612dfd565b80156110405780601f1061101557610100808354040283529160200191611040565b820191906000526020600020905b81548152906001019060200180831161102357829003601f168201915b50505050506040518060400160405280600381526020017f425443000000000000000000000000000000000000000000000000000000000081525061227d565b1561123957600182815481106110bf577f4e487b7100000000000000000000000000000000000000000000000000000000600052603260045260246000fd5b906000526020600020906003020160010154600460003373ffffffffffffffffffffffffffffffffffffffff1673ffffffffffffffffffffffffffffffffffffffff16815260200190815260200160002060000160008282546111229190612d09565b9250508190555060018281548110611163577f4e487b7100000000000000000000000000000000000000000000000000000000600052603260045260246000fd5b90600052602060002090600302016001015460046000600185815481106111b3577f4e487b7100000000000000000000000000000000000000000000000000000000600052603260045260246000fd5b906000526020600020906003020160000160009054906101000a900473ffffffffffffffffffffffffffffffffffffffff1673ffffffffffffffffffffffffffffffffffffffff1673ffffffffffffffffffffffffffffffffffffffff16815260200190815260200160002060000160008282546112319190612c59565b925050819055505b61134b60018381548110611276577f4e487b7100000000000000000000000000000000000000000000000000000000600052603260045260246000fd5b9060005260206000209060030201600201805461129290612dfd565b80601f01602080910402602001604051908101604052809291908181526020018280546112be90612dfd565b801561130b5780601f106112e05761010080835404028352916020019161130b565b820191906000526020600020905b8154815290600101906020018083116112ee57829003601f168201915b50505050506040518060400160405280600481526020017f4c554e410000000000000000000000000000000000000000000000000000000081525061227d565b15611504576001828154811061138a577f4e487b7100000000000000000000000000000000000000000000000000000000600052603260045260246000fd5b906000526020600020906003020160010154600460003373ffffffffffffffffffffffffffffffffffffffff1673ffffffffffffffffffffffffffffffffffffffff16815260200190815260200160002060010160008282546113ed9190612d09565b925050819055506001828154811061142e577f4e487b7100000000000000000000000000000000000000000000000000000000600052603260045260246000fd5b906000526020600020906003020160010154600460006001858154811061147e577f4e487b7100000000000000000000000000000000000000000000000000000000600052603260045260246000fd5b906000526020600020906003020160000160009054906101000a900473ffffffffffffffffffffffffffffffffffffffff1673ffffffffffffffffffffffffffffffffffffffff1673ffffffffffffffffffffffffffffffffffffffff16815260200190815260200160002060010160008282546114fc9190612c59565b925050819055505b5b5b7f0b3bdb70bcb1393d4319be3261bd6ab95e2ea1665e718029d24cecca39e84ccc816040516115359190612a5f565b60405180910390a1600180808054905061154f9190612d09565b81548110611586577f4e487b7100000000000000000000000000000000000000000000000000000000600052603260045260246000fd5b9060005260206000209060030201600183815481106115ce577f4e487b7100000000000000000000000000000000000000000000000000000000600052603260045260246000fd5b90600052602060002090600302016000820160009054906101000a900473ffffffffffffffffffffffffffffffffffffffff168160000160006101000a81548173ffffffffffffffffffffffffffffffffffffffff021916908373ffffffffffffffffffffffffffffffffffffffff16021790555060018201548160010155600282018160020190805461166190612dfd565b61166c9291906122f0565b5090505060018054806116a8577f4e487b7100000000000000000000000000000000000000000000000000000000600052603160045260246000fd5b6001900381819060005260206000209060030201600080820160006101000a81549073ffffffffffffffffffffffffffffffffffffffff021916905560018201600090556002820160006116fc919061237d565b505090555050565b60008054906101000a900473ffffffffffffffffffffffffffffffffffffffff1681565b6117ab85858080601f016020809104026020016040519081016040528093929190818152602001838380828437600081840152601f19601f820116905080830192505050505050506040518060400160405280600381526020017f425443000000000000000000000000000000000000000000000000000000000081525061227d565b156118ab5780600460003373ffffffffffffffffffffffffffffffffffffffff1673ffffffffffffffffffffffffffffffffffffffff168152602001908152602001600020600001541015611835576040517f08c379a000000000000000000000000000000000000000000000000000000000815260040161182c90612aeb565b60405180910390fd5b80600460003373ffffffffffffffffffffffffffffffffffffffff1673ffffffffffffffffffffffffffffffffffffffff16815260200190815260200160002060000160008282546118879190612d09565b9250508190555080600260000160008282546118a39190612d09565b925050819055505b61192e85858080601f016020809104026020016040519081016040528093929190818152602001838380828437600081840152601f19601f820116905080830192505050505050506040518060400160405280600481526020017f4c554e410000000000000000000000000000000000000000000000000000000081525061227d565b15611a2e5780600460003373ffffffffffffffffffffffffffffffffffffffff1673ffffffffffffffffffffffffffffffffffffffff1681526020019081526020016000206001015410156119b8576040517f08c379a00000000000000000000000000000000000000000000000000000000081526004016119af90612aeb565b60405180910390fd5b80600460003373ffffffffffffffffffffffffffffffffffffffff1673ffffffffffffffffffffffffffffffffffffffff1681526020019081526020016000206001016000828254611a0a9190612d09565b925050819055508060026001016000828254611a269190612d09565b925050819055505b60008060009054906101000a900473ffffffffffffffffffffffffffffffffffffffff1673ffffffffffffffffffffffffffffffffffffffff166364936b1e87876040518363ffffffff1660e01b8152600401611a8c929190612ac7565b60206040518083038186803b158015611aa457600080fd5b505afa158015611ab8573d6000803e3d6000fd5b505050506040513d601f19601f82011682018060405250810190611adc919061259b565b73ffffffffffffffffffffffffffffffffffffffff166338463cff8585856040518463ffffffff1660e01b8152600401611b1893929190612a7a565b602060405180830381600087803b158015611b3257600080fd5b505af1158015611b46573d6000803e3d6000fd5b505050506040513d601f19601f82011682018060405250810190611b6a919061273a565b90507f4e70a604b23a8edee2b1d0a656e9b9c00b73ad8bb1afc2c59381ee9f69197de781604051611b9b9190612b66565b60405180910390a1505050505050565b60606001805480602002602001604051908101604052809291908181526020016000905b82821015611cf357838290600052602060002090600302016040518060600160405290816000820160009054906101000a900473ffffffffffffffffffffffffffffffffffffffff1673ffffffffffffffffffffffffffffffffffffffff1673ffffffffffffffffffffffffffffffffffffffff16815260200160018201548152602001600282018054611c6290612dfd565b80601f0160208091040260200160405190810160405280929190818152602001828054611c8e90612dfd565b8015611cdb5780601f10611cb057610100808354040283529160200191611cdb565b820191906000526020600020905b815481529060010190602001808311611cbe57829003601f168201915b50505050508152505081526020019060010190611bcf565b50505050905090565b611d7f83838080601f016020809104026020016040519081016040528093929190818152602001838380828437600081840152601f19601f820116905080830192505050505050506040518060400160405280600381526020017f455448000000000000000000000000000000000000000000000000000000000081525061227d565b15611e9957600160405180606001604052803373ffffffffffffffffffffffffffffffffffffffff16815260200134815260200185858080601f016020809104026020016040519081016040528093929190818152602001838380828437600081840152601f19601f82011690508083019250505050505050815250908060018154018082558091505060019003906000526020600020906003020160009091909190915060008201518160000160006101000a81548173ffffffffffffffffffffffffffffffffffffffff021916908373ffffffffffffffffffffffffffffffffffffffff160217905550602082015181600101556040820151816002019080519060200190611e919291906123bd565b505050612278565b611f1c83838080601f016020809104026020016040519081016040528093929190818152602001838380828437600081840152601f19601f820116905080830192505050505050506040518060400160405280600381526020017f425443000000000000000000000000000000000000000000000000000000000081525061227d565b1561200057600460003373ffffffffffffffffffffffffffffffffffffffff1673ffffffffffffffffffffffffffffffffffffffff16815260200190815260200160002060000154811115611fa6576040517f08c379a0000000000000000000000000000000000000000000000000000000008152600401611f9d90612b2b565b60405180910390fd5b80600460003373ffffffffffffffffffffffffffffffffffffffff1673ffffffffffffffffffffffffffffffffffffffff1681526020019081526020016000206000016000828254611ff89190612d09565b925050819055505b61208383838080601f016020809104026020016040519081016040528093929190818152602001838380828437600081840152601f19601f820116905080830192505050505050506040518060400160405280600481526020017f4c554e410000000000000000000000000000000000000000000000000000000081525061227d565b1561216757600460003373ffffffffffffffffffffffffffffffffffffffff1673ffffffffffffffffffffffffffffffffffffffff1681526020019081526020016000206001015481111561210d576040517f08c379a000000000000000000000000000000000000000000000000000000000815260040161210490612b2b565b60405180910390fd5b80600460003373ffffffffffffffffffffffffffffffffffffffff1673ffffffffffffffffffffffffffffffffffffffff168152602001908152602001600020600101600082825461215f9190612d09565b925050819055505b600160405180606001604052803373ffffffffffffffffffffffffffffffffffffffff16815260200183815260200185858080601f016020809104026020016040519081016040528093929190818152602001838380828437600081840152601f19601f82011690508083019250505050505050815250908060018154018082558091505060019003906000526020600020906003020160009091909190915060008201518160000160006101000a81548173ffffffffffffffffffffffffffffffffffffffff021916908373ffffffffffffffffffffffffffffffffffffffff1602179055506020820151816001015560408201518160020190805190602001906122749291906123bd565b5050505b505050565b60008160405160200161229091906129fa565b60405160208183030381529060405280519060200120836040516020016122b791906129fa565b6040516020818303038152906040528051906020012014905092915050565b604051806040016040528060008152602001600081525090565b8280546122fc90612dfd565b90600052602060002090601f01602090048101928261231e576000855561236c565b82601f1061232f578054855561236c565b8280016001018555821561236c57600052602060002091601f016020900482015b8281111561236b578254825591600101919060010190612350565b5b5090506123799190612443565b5090565b50805461238990612dfd565b6000825580601f1061239b57506123ba565b601f0160209004906000526020600020908101906123b99190612443565b5b50565b8280546123c990612dfd565b90600052602060002090601f0160209004810192826123eb5760008555612432565b82601f1061240457805160ff1916838001178555612432565b82800160010185558215612432579182015b82811115612431578251825591602001919060010190612416565b5b50905061243f9190612443565b5090565b5b8082111561245c576000816000905550600101612444565b5090565b600061247361246e84612ba6565b612b81565b90508281526020810184848401111561248b57600080fd5b612496848285612dbb565b509392505050565b60008083601f8401126124b057600080fd5b8235905067ffffffffffffffff8111156124c957600080fd5b6020830191508360018202830111156124e157600080fd5b9250929050565b6000815190506124f781612fe3565b92915050565b60008083601f84011261250f57600080fd5b8235905067ffffffffffffffff81111561252857600080fd5b60208301915083600182028301111561254057600080fd5b9250929050565b600082601f83011261255857600080fd5b8135612568848260208601612460565b91505092915050565b60008135905061258081612ffa565b92915050565b60008151905061259581612ffa565b92915050565b6000602082840312156125ad57600080fd5b60006125bb848285016124e8565b91505092915050565b6000806000806000606086880312156125dc57600080fd5b600086013567ffffffffffffffff8111156125f657600080fd5b612602888289016124fd565b9550955050602086013567ffffffffffffffff81111561262157600080fd5b61262d8882890161249e565b9350935050604061264088828901612571565b9150509295509295909350565b60008060006040848603121561266257600080fd5b600084013567ffffffffffffffff81111561267c57600080fd5b612688868287016124fd565b9350935050602061269b86828701612571565b9150509250925092565b600080604083850312156126b857600080fd5b600083013567ffffffffffffffff8111156126d257600080fd5b6126de85828601612547565b925050602083013567ffffffffffffffff8111156126fb57600080fd5b61270785828601612547565b9150509250929050565b60006020828403121561272357600080fd5b600061273184828501612571565b91505092915050565b60006020828403121561274c57600080fd5b600061275a84828501612586565b91505092915050565b600061276f8383612975565b905092915050565b61278081612d3d565b82525050565b600061279182612be7565b61279b8185612c0a565b9350836020820285016127ad85612bd7565b8060005b858110156127e957848403895281516127ca8582612763565b94506127d583612bfd565b925060208a019950506001810190506127b1565b50829750879550505050505092915050565b61280481612d4f565b82525050565b60006128168385612c1b565b9350612823838584612dbb565b61282c83612f57565b840190509392505050565b61284081612d97565b82525050565b60006128528385612c3d565b935061285f838584612dbb565b61286883612f57565b840190509392505050565b600061287e82612bf2565b6128888185612c2c565b9350612898818560208601612dca565b6128a181612f57565b840191505092915050565b60006128b782612bf2565b6128c18185612c4e565b93506128d1818560208601612dca565b80840191505092915050565b60006128ea601483612c3d565b91506128f582612f68565b602082019050919050565b600061290d600c83612c3d565b915061291882612f91565b602082019050919050565b6000612930601483612c3d565b915061293b82612fba565b602082019050919050565b60408201600082015161295c60008501826129c5565b50602082015161296f60208501826129c5565b50505050565b600060608301600083015161298d6000860182612777565b5060208301516129a060208601826129c5565b50604083015184820360408601526129b88282612873565b9150508091505092915050565b6129ce81612d8d565b82525050565b6129dd81612d8d565b82525050565b6129f46129ef82612d8d565b612e60565b82525050565b6000612a0682846128ac565b915081905092915050565b6000612a1d82856129e3565b602082019150612a2d82846129e3565b6020820191508190509392505050565b60006020820190508181036000830152612a578184612786565b905092915050565b6000602082019050612a7460008301846127fb565b92915050565b60006040820190508181036000830152612a9581858761280a565b9050612aa460208301846129d4565b949350505050565b6000602082019050612ac16000830184612837565b92915050565b60006020820190508181036000830152612ae2818486612846565b90509392505050565b60006020820190508181036000830152612b04816128dd565b9050919050565b60006020820190508181036000830152612b2481612900565b9050919050565b60006020820190508181036000830152612b4481612923565b9050919050565b6000604082019050612b606000830184612946565b92915050565b6000602082019050612b7b60008301846129d4565b92915050565b6000612b8b612b9c565b9050612b978282612e2f565b919050565b6000604051905090565b600067ffffffffffffffff821115612bc157612bc0612f28565b5b612bca82612f57565b9050602081019050919050565b6000819050602082019050919050565b600081519050919050565b600081519050919050565b6000602082019050919050565b600082825260208201905092915050565b600082825260208201905092915050565b600082825260208201905092915050565b600082825260208201905092915050565b600081905092915050565b6000612c6482612d8d565b9150612c6f83612d8d565b9250827fffffffffffffffffffffffffffffffffffffffffffffffffffffffffffffffff03821115612ca457612ca3612e9b565b5b828201905092915050565b6000612cba82612d8d565b9150612cc583612d8d565b9250817fffffffffffffffffffffffffffffffffffffffffffffffffffffffffffffffff0483118215151615612cfe57612cfd612e9b565b5b828202905092915050565b6000612d1482612d8d565b9150612d1f83612d8d565b925082821015612d3257612d31612e9b565b5b828203905092915050565b6000612d4882612d6d565b9050919050565b60008115159050919050565b6000612d6682612d3d565b9050919050565b600073ffffffffffffffffffffffffffffffffffffffff82169050919050565b6000819050919050565b6000612da282612da9565b9050919050565b6000612db482612d6d565b9050919050565b82818337600083830152505050565b60005b83811015612de8578082015181840152602081019050612dcd565b83811115612df7576000848401525b50505050565b60006002820490506001821680612e1557607f821691505b60208210811415612e2957612e28612ef9565b5b50919050565b612e3882612f57565b810181811067ffffffffffffffff82111715612e5757612e56612f28565b5b80604052505050565b6000819050919050565b6000612e7582612d8d565b9150612e8083612d8d565b925082612e9057612e8f612eca565b5b828206905092915050565b7f4e487b7100000000000000000000000000000000000000000000000000000000600052601160045260246000fd5b7f4e487b7100000000000000000000000000000000000000000000000000000000600052601260045260246000fd5b7f4e487b7100000000000000000000000000000000000000000000000000000000600052602260045260246000fd5b7f4e487b7100000000000000000000000000000000000000000000000000000000600052604160045260246000fd5b6000601f19601f8301169050919050565b7f4465706f73697420416d6f756e74204572726f72000000000000000000000000600082015250565b7f416d6f756e74204572726f720000000000000000000000000000000000000000600082015250565b7f42616c616e636520496e73756666696369656e74000000000000000000000000600082015250565b612fec81612d5b565b8114612ff757600080fd5b50565b61300381612d8d565b811461300e57600080fd5b5056fea2646970667358221220d12b2735b984050ede7e0b602162eeec75fa25b54a8fa62c214a53a82a5ef8f864736f6c63430008040033",
  "linkReferences": {},
  "deployedLinkReferences": {}
}